:02000000813647
:10030000456E74657220496E70757473004545338F
:1003100033372D323032320052656164696E6720A6
:10032000496E7075747300436F6D707574696E6794
:1003300020526573756C7473004E756D313A002CE4
:10034000204E756D323A00526573756C74203D20F5
:0103500000AC
:1001000031DC5147514774825119900300513974C1
:10011000C3511990030D51392231DC5147514751D8
:100120004774815119900318513974C351199003C0
:100130000D51392231DC51475147514774805119D3
:10014000900327513974C05119900339513974C53E
:100150005119E570512874C65119E571512874C7B9
:10016000511990033F513974CE5119E572512874D9
:10017000CF5119E57351282231DC5147514751477E
:10018000748251199003475139748B5119E5745198
:1001900028748C5119E5755128748D5119E57651E3
:1001A00028748E5119E577512874C051199003397C
:1001B000513974C55119E570512874C65119E5714A
:1001C000512874C7511990033F513974CE5119E524
:1001D00072512874CF5119E57351282275A038C285
:1001E00080C281D2825147C282514775A00CC28021
:1001F000C281D2825147C282514775A001C280C2DA
:1002000081D2825147C282514775A006C280C28105
:10021000D2825147C282514722F5A0C280C281D208
:10022000825147C282514722F5A0D280C281D28238
:02023000514734
:10023200C2825147514722C0E0E49360055128A38E
:1002420080F7D0E022C000C001780179FFD9FED842
:06025200FAD001D00022E9
:10040000E56075F01084F56185F062E5612430F5F2
:100410006375F03A846006E5F02441F56385636412
:10042000E5622430F56575F03A846006E5F0244114
:10043000F5658565662275A00075900051475147A6
:1004400031DC51475147514775900FD297D296D220
:1004500095D29412010012050431DCC296C295C2F5
:1004600094120119120504120504E59075F010A408
:10047000F540C297D296120119120504120504E53F
:100480009075F01084E54025F0F530C296D29512B3
:100490000119120504120504E59075F010A4F54148
:1004A000C295D294120119120504120504E5907543
:1004B000F01084E54125F0F53185306012040085A7
:1004C000647085667185316012040085647285668A
:1004D00073C294120134E5308531F0A4F55085F0F3
:1004E00051120504120504855060120400856476DB
:1004F000856677855160120400856474856675127F
:10050000017880FEC000C001790578C8B117D8FC19
:10051000D9F8D001D00022C0007804B122D8FCD094
:0C0520000022C00078F4D8FED000222297
:00000001FF
