:03000000020304F4
:1001000075A038C280C281D28271B5C28271B575C4
:10011000A00CC280C281D28271B5C28271B575A0B5
:1001200001C280C281D28271B5C28271B575A0064A
:10013000C280C281D28271B5C28271B522F5A0C2DD
:1001400080C281D28271B5C28271B522F5A0D280FF
:10015000C281D28271B5C28271B522C0E0E49360DF
:0901600005314CA380F7D0E02228
:10020000310071B57484313D9002DC315B74C231D0
:100210003D9002FC315B74C9313DE563314C74CAD9
:10022000313DE562314C74CB313DE561314C74CCEC
:10023000313DE560314C22310071B57484313D901F
:1002400002E4315B74C2313D9002FC315B74C93110
:100250003DE563314C74CA313DE562314C74CB31BC
:100260003DE561314C74CC313DE560314C223100CB
:1002700071B57484313D9002EC315B74C2313D90B4
:1002800002FC315B74C9313DE563314C74CA313DC8
:10029000E562314C74CB313DE561314C74CC313D7C
:1002A000E560314C22310071B57484313D9002F427
:1002B000315B74C2313D9002FC315B74C9313DE564
:1002C00063314C74CA313DE562314C74CB313DE54C
:1002D00061314C74CC313DE560314C224C45564582
:1002E0004C2031004C4556454C2032004C4556457B
:1002F0004C2033004C4556454C20340056414C555B
:10030000453A200075706D7571A975900075A00053
:10031000120100E570C454F0F550E57054F0F55149
:10032000E571C454F0F552E57154F0F553855090E1
:10033000A8501203631202007197855190A85112C0
:1003400003631202377197855290A8521203631209
:10035000026E7197855390A8531203631202A57120
:040360009780CAE8D0
:10036400548060057563318003756330E8544060E0
:10037400057562318003756230E85420600575614B
:10038400318003756130E854106004756031227562
:10039400603022C000782671A2D8FCD00022758972
:1003A40001758C3D758AB0D28C308DFDC28CC28DA6
:1003B40022758910758DF8758B30D28E308FFDC201
:0403C4008EC28F2234
:00000001FF
