:10080000454520333337002A2A2A2A2A2A2A2A2A27
:100810002A2A2A2A2A2A2A2A2A2A2A2A2A2A2A0D55
:100820000A002A2A2A2A2A2A3830353120546573A8
:1008300074732A2A2A2A2A2A2A2A0D0A0050726543
:100840007373203120666F72204C434420746573AB
:10085000740D0A005072657373203220666F722027
:100860004C454420746573740D0A004C4344207455
:1008700065737465640D0A004C4544207465737497
:1008800065640D0A00496E636F7272656374204B74
:0D089000657920707265737365640D0A0050
:040AE000C101C1008F
:10098C00E4F5A0C282C280C2817F38FE120A8A12AC
:10099C000A137F067E00120A8A120A137F0C7E004D
:1009AC00120A8A120A137F017E00120A8A120A1393
:0709BC007F807E00020A8A21
:040A13007F047E00DE
:100A1700E4FDFCC3ED9FEC9E5015E4FBFA0BBB0015
:0F0A2700010ABA01F8BB7EF50DBD00010C80E499
:010A3600229D
:100A8A00C280C281D2828FA07F0A7E00120A17C258
:020A9A008222B6
:100A9C00D280C281D2828FA07F0A7E00120A17C236
:020AAC008222A4
:1009EE008B098A0A890BAB09AA0AA90B120A716034
:1009FE0013050BE50B7002050A14F9120A71FF12AA
:050A0E000A9C80E222B9
:100AAE00758920758DF3759850D28ED2ACD2AF2247
:080AD8008F993001FDC20122DB
:0609C3007BFF7A087907B2
:1009C9008B098A0A890BAB09AA0AA90B120A716059
:1009D90013050BE50B7002050A14F9120A71FF12CF
:0509E9000AD880E222A3
:090ACE00E4FF3000FDC200AF9905
:010AD70022FC
:03002300020ABE10
:100ABE00309905C299D20132309804C298D20032D0
:100A37007F857E00120A8A7BFF7A0879001209EE09
:0E0A47007FD07E07120A177F017E00020A8A06
:100A550075908F7FF47E01120A1775904F120A1751
:0C0A650075902F120A1775901F020A17D7
:10092900E4F50875900F12098C120AAE1209C37BFF
:10093900FF7A0879221209C91209C37BFF7A08795B
:100949003D1209C97BFF7A0879541209C9120ACEE6
:100959008F08E50824CE600E047016120A377BFF53
:100969007A08796B8011120A557BFF7A08797880A9
:10097900067BFF7A0879851209C97F647E00120A0D
:030989001780CA0A
:0300000002089D56
:0C089D00787FE4F6D8FD7581200208E4A5
:100A7100BB010689828A83E0225002E722BBFE0283
:090A8100E32289828A83E49322B6
:1008A900020929E493A3F8E493A34003F68001F233
:1008B90008DFF48029E493A3F85407240CC8C33350
:1008C900C4540F4420C8834004F456800146F6DF1F
:1008D900E4800B0102040810204080900AE0E47EC5
:1008E900019360BCA3FF543F30E509541FFEE49314
:1008F900A360010ECF54C025E060A840B8E493A3DB
:10090900FAE493A3F8E493A3C8C582C8CAC583CA05
:10091900F0A3C8C582C8CAC583CADFE9DEE780BEBD
:010AE4000011
:00000001FF
