:030000000203F701
:07000300C28EC294D2B2329A
:06001B001203F2D2B23222
:1003000075A038C280C281D2829198C282919875BC
:10031000A00CC280C281D2829198C282919875A0AD
:1003200001C280C281D2829198C282919875A00642
:10033000C280C281D2829198C282919822F5A0C2D5
:1003400080C281D2829198C282919822F5A0D280F7
:10035000C281D2829198C2829198919822C0E0E4A1
:10036000936005714CA380F7D0E0227100919874DE
:1003700083713D9003B9715D74C2713D9003C47186
:100380005D22710091987482713D9003D1715D740A
:10039000C0713D9003DF715D7420714CE553714C69
:1003A000E554714C7420714CE555714CE556714C17
:1003B000E557714CE558714C22546F67676C6520A6
:1003C000535731006966204C454420676C6F777342
:1003D000005265616374696F6E2054696D650043F6
:1003E0006F756E74206973002000209002802FC208
:1003F000B222C28F05F02275900075A00075F00042
:10040000D29012030012036B1204A91204A9D29411
:1004100075A889758910758D00758B00D28E208E18
:100420000280031203EA858D71858B7285F051126B
:100430000462856453856654857151120462856433
:1004400055856656857251120462856457856658D3
:10045000120382919891A991A991A991A991A902B8
:1004600003F7E55175F01084F56185F062E56124CC
:0704700030F56375F03A84DA
:100477006006E5F02441F563856364E5622430F5A1
:100487006575F03A846006E5F02441F56585656693
:1004970022C000C001780479FFD9FED8FAD001D074
:1004A7000022C000C0017901782791BCD8FCD9F897
:1004B700D001D00022758901758C3E758A3FD28C98
:0804C700308DFDC28CC28D22B4
:00000001FF
