:030000000206D61F
:1001000075A038C280C281D282F114C282F1147506
:10011000A00CC280C281D282F114C282F11475A0F7
:1001200001C280C281D282F114C282F11475A0068C
:10013000C280C281D282F114C282F11422F5A0C21F
:1001400080C281D282F114C282F11422F5A0D28041
:10015000C281D282F114C282F114F11422C0E0E40F
:10016000936005314CA380F7D0E0223100F1147484
:0901700082313D900600315D2250
:10060000524F4C4C494E472054494D450075891175
:10061000758D3E758B3FD28E758CEE758A3FD28C70
:10062000308DFDB287C28CC28D308FECC28EC28FEE
:1006300022758911758D3E758B3FD28E758CF07544
:100640008A30D28C308DFDB287C28CC28D308FEC57
:10065000C28EC28F22758911758D3E758B3FD28EE9
:10066000758CF2758AB7D28C308DFDB287C28CC280
:100670008D308FECC28EC28F22758911758D3E75BB
:100680008B3FD28E758CF5758A72D28C308DFDB20F
:1006900087C28CC28D308FECC28EC28F22758911B9
:1006A000758D3E758B3FD28E758CF4758A2AD28CEF
:1006B000308DFDB287C28CC28D308FECC28EC28F5E
:1006C00022758910758D3E758B3FD28EC287308F13
:1006D000FBC28EC28F2275800075900075A000311C
:1006E0006B781ED10DD8FC781ED131D8FC781ED184
:1006F00055D8FC781ED131D8FC7828D155D8FC7853
:1007000014D1C1D8FC7828D179D8FC7840D19DD8B3
:10071000FC0206D6C000C001780479FFD9FED8FAE1
:05072000D001D0002211
:00000001FF
