:0A09EA0041004200430044004500B4
:10088800E4F5A0C282C280C2817F38FE1209867F49
:10089800047E001208DF7F067E001209867F047E30
:1008A800001208DF7F0C7E001209867F047E00128A
:1008B80008DF7F017E001209867F047E001208DFB0
:0708C8007F807E000209861B
:1008CF007F017E001208DF7F861209867F017E007E
:1008DF00E4FDFCC3ED9FEC9E5015E4FBFA0BBB004F
:0F08EF00010ABA01F8BB7EF50DBD00010C80E4D3
:0108FE0022D7
:10098600C280C281D2828FA07F0A7E001208DFC297
:020996008222BB
:10099800D280C281D2828FA07F0A7E001208DFC275
:0209A8008222A9
:1008FF008B088A09890AAB08AA09A90A120942605A
:10090F0013050AE50A7002050914F9120942FF12CC
:05091F00099880E222AE
:10097200900000B2871208DBA3E582B4DCF5E583C0
:03098200B405F0C9
:01098500224F
:0A0924001209727FE87E031208DF5B
:10092E00900000B2871208DBA3E582B4EEF5E583F2
:03093E00B402F010
:010941002293
:0D09BA0012092E7FE87E031208DF02097289
:1009AA001209241209277FE87E031208DF02092EA2
:10095B001209247FE87E031208DF1209727FE87EFA
:07096B00031208DF02092E50
:0D09C7001209247FE87E031208DF02092ECA
:0A09E00012092E7FE87E030208DFF3
:1008000075900F3090181208881208CF7BFF7A0974
:1008100079EA1208FF1208DB1209BA020882309145
:10082000181208881208CF7BFF7A0979EC1208FFAA
:100830001208DB1209AA02088230921712088812E5
:1008400008CF7BFF7A0979EE1208FF1208DB120944
:100850005B802F3093171208881208CF7BFF7A092C
:1008600079F01208FF1208DB1209C78015120888F8
:100870001208CF7BFF7A0979F21208FF1208DB1207
:0808800009E0438701020803AF
:030000000209D41E
:0C09D400787FE4F6D8FD75810A02080067
:10094200BB010689828A83E0225002E722BBFE02B3
:09095200E32289828A83E49322E6
:00000001FF
