:03000000020100FA
:10010000755015755106755219755383E550F59064
:100110003152C4F5903152E474F0F5903152E4E577
:1001200051F5903152C4F5903152E474F0F59031AC
:1001300052E4E552F5903152C4F5903152E4E55362
:10014000F5903152C4F5903152E474F0F59031528B
:1001500080AEC0007805315DD8FCD00022C00078A8
:10016000C83168D8FCD00022C00078043173D8FCB4
:0D017000D00022C00078F4D8FED00022227A
:00000001FF
