:03000000020100FA
:10010000755015755106755219755383E550F59064
:10011000315DC4F590315DE474F0F590315DE4E556
:1001200051F590315DC4F590315DE474F0F5903196
:100130005DE4E552F590315DC4F590315DE4E55341
:10014000F590315DC4F590315DE474F0F590315D6A
:1001500080AEC0007805315DD8FCD00022C00078A8
:10016000C83168D8FCD00022C00078043173D8FCB4
:0D017000D00022C00078F4D8FED00022227A
:00000001FF
